{
  "_format": "hh-sol-artifact-1",
  "contractName": "UniversityCourse",
  "sourceName": "contracts/UniversityCourse.sol",
  "abi": [
    {
      "inputs": [
        {
          "internalType": "address payable",
          "name": "_ycTokenAddress",
          "type": "address"
        }
      ],
      "stateMutability": "nonpayable",
      "type": "constructor"
    },
    {
      "inputs": [
        {
          "internalType": "address",
          "name": "owner",
          "type": "address"
        }
      ],
      "name": "OwnableInvalidOwner",
      "type": "error"
    },
    {
      "inputs": [
        {
          "internalType": "address",
          "name": "account",
          "type": "address"
        }
      ],
      "name": "OwnableUnauthorizedAccount",
      "type": "error"
    },
    {
      "inputs": [],
      "name": "ReentrancyGuardReentrantCall",
      "type": "error"
    },
    {
      "anonymous": false,
      "inputs": [
        {
          "indexed": true,
          "internalType": "uint256",
          "name": "courseId",
          "type": "uint256"
        },
        {
          "indexed": false,
          "internalType": "string",
          "name": "title",
          "type": "string"
        },
        {
          "indexed": true,
          "internalType": "address",
          "name": "instructor",
          "type": "address"
        },
        {
          "indexed": false,
          "internalType": "uint256",
          "name": "priceYCT",
          "type": "uint256"
        }
      ],
      "name": "CourseCreated",
      "type": "event"
    },
    {
      "anonymous": false,
      "inputs": [
        {
          "indexed": true,
          "internalType": "uint256",
          "name": "courseId",
          "type": "uint256"
        }
      ],
      "name": "CourseDeactivated",
      "type": "event"
    },
    {
      "anonymous": false,
      "inputs": [
        {
          "indexed": true,
          "internalType": "uint256",
          "name": "courseId",
          "type": "uint256"
        },
        {
          "indexed": true,
          "internalType": "address",
          "name": "student",
          "type": "address"
        },
        {
          "indexed": false,
          "internalType": "uint256",
          "name": "priceYCT",
          "type": "uint256"
        },
        {
          "indexed": false,
          "internalType": "uint256",
          "name": "timestamp",
          "type": "uint256"
        }
      ],
      "name": "CoursePurchased",
      "type": "event"
    },
    {
      "anonymous": false,
      "inputs": [
        {
          "indexed": true,
          "internalType": "uint256",
          "name": "courseId",
          "type": "uint256"
        },
        {
          "indexed": false,
          "internalType": "string",
          "name": "title",
          "type": "string"
        },
        {
          "indexed": false,
          "internalType": "uint256",
          "name": "priceYCT",
          "type": "uint256"
        }
      ],
      "name": "CourseUpdated",
      "type": "event"
    },
    {
      "anonymous": false,
      "inputs": [
        {
          "indexed": true,
          "internalType": "address",
          "name": "previousOwner",
          "type": "address"
        },
        {
          "indexed": true,
          "internalType": "address",
          "name": "newOwner",
          "type": "address"
        }
      ],
      "name": "OwnershipTransferred",
      "type": "event"
    },
    {
      "inputs": [],
      "name": "courseCounter",
      "outputs": [
        {
          "internalType": "uint256",
          "name": "",
          "type": "uint256"
        }
      ],
      "stateMutability": "view",
      "type": "function"
    },
    {
      "inputs": [
        {
          "internalType": "uint256",
          "name": "",
          "type": "uint256"
        }
      ],
      "name": "courses",
      "outputs": [
        {
          "internalType": "uint256",
          "name": "id",
          "type": "uint256"
        },
        {
          "internalType": "string",
          "name": "title",
          "type": "string"
        },
        {
          "internalType": "string",
          "name": "description",
          "type": "string"
        },
        {
          "internalType": "string",
          "name": "coverUrl",
          "type": "string"
        },
        {
          "internalType": "uint256",
          "name": "priceYCT",
          "type": "uint256"
        },
        {
          "internalType": "address",
          "name": "instructor",
          "type": "address"
        },
        {
          "internalType": "bool",
          "name": "isActive",
          "type": "bool"
        },
        {
          "internalType": "uint256",
          "name": "createdAt",
          "type": "uint256"
        },
        {
          "internalType": "uint256",
          "name": "totalStudents",
          "type": "uint256"
        }
      ],
      "stateMutability": "view",
      "type": "function"
    },
    {
      "inputs": [
        {
          "internalType": "string",
          "name": "_title",
          "type": "string"
        },
        {
          "internalType": "string",
          "name": "_description",
          "type": "string"
        },
        {
          "internalType": "string",
          "name": "_coverUrl",
          "type": "string"
        },
        {
          "internalType": "uint256",
          "name": "_priceYCT",
          "type": "uint256"
        }
      ],
      "name": "createCourse",
      "outputs": [
        {
          "internalType": "uint256",
          "name": "",
          "type": "uint256"
        }
      ],
      "stateMutability": "nonpayable",
      "type": "function"
    },
    {
      "inputs": [
        {
          "internalType": "uint256",
          "name": "_courseId",
          "type": "uint256"
        }
      ],
      "name": "deactivateCourse",
      "outputs": [],
      "stateMutability": "nonpayable",
      "type": "function"
    },
    {
      "inputs": [
        {
          "internalType": "uint256",
          "name": "_offset",
          "type": "uint256"
        },
        {
          "internalType": "uint256",
          "name": "_limit",
          "type": "uint256"
        }
      ],
      "name": "getActiveCourses",
      "outputs": [
        {
          "components": [
            {
              "internalType": "uint256",
              "name": "id",
              "type": "uint256"
            },
            {
              "internalType": "string",
              "name": "title",
              "type": "string"
            },
            {
              "internalType": "string",
              "name": "description",
              "type": "string"
            },
            {
              "internalType": "string",
              "name": "coverUrl",
              "type": "string"
            },
            {
              "internalType": "uint256",
              "name": "priceYCT",
              "type": "uint256"
            },
            {
              "internalType": "address",
              "name": "instructor",
              "type": "address"
            },
            {
              "internalType": "bool",
              "name": "isActive",
              "type": "bool"
            },
            {
              "internalType": "uint256",
              "name": "createdAt",
              "type": "uint256"
            },
            {
              "internalType": "uint256",
              "name": "totalStudents",
              "type": "uint256"
            }
          ],
          "internalType": "struct UniversityCourse.Course[]",
          "name": "",
          "type": "tuple[]"
        }
      ],
      "stateMutability": "view",
      "type": "function"
    },
    {
      "inputs": [
        {
          "internalType": "uint256",
          "name": "_courseId",
          "type": "uint256"
        }
      ],
      "name": "getCourse",
      "outputs": [
        {
          "components": [
            {
              "internalType": "uint256",
              "name": "id",
              "type": "uint256"
            },
            {
              "internalType": "string",
              "name": "title",
              "type": "string"
            },
            {
              "internalType": "string",
              "name": "description",
              "type": "string"
            },
            {
              "internalType": "string",
              "name": "coverUrl",
              "type": "string"
            },
            {
              "internalType": "uint256",
              "name": "priceYCT",
              "type": "uint256"
            },
            {
              "internalType": "address",
              "name": "instructor",
              "type": "address"
            },
            {
              "internalType": "bool",
              "name": "isActive",
              "type": "bool"
            },
            {
              "internalType": "uint256",
              "name": "createdAt",
              "type": "uint256"
            },
            {
              "internalType": "uint256",
              "name": "totalStudents",
              "type": "uint256"
            }
          ],
          "internalType": "struct UniversityCourse.Course",
          "name": "",
          "type": "tuple"
        }
      ],
      "stateMutability": "view",
      "type": "function"
    },
    {
      "inputs": [
        {
          "internalType": "address",
          "name": "_instructor",
          "type": "address"
        }
      ],
      "name": "getInstructorCourses",
      "outputs": [
        {
          "internalType": "uint256[]",
          "name": "",
          "type": "uint256[]"
        }
      ],
      "stateMutability": "view",
      "type": "function"
    },
    {
      "inputs": [
        {
          "internalType": "address",
          "name": "_student",
          "type": "address"
        }
      ],
      "name": "getStudentCourses",
      "outputs": [
        {
          "internalType": "uint256[]",
          "name": "",
          "type": "uint256[]"
        }
      ],
      "stateMutability": "view",
      "type": "function"
    },
    {
      "inputs": [
        {
          "internalType": "uint256",
          "name": "",
          "type": "uint256"
        },
        {
          "internalType": "address",
          "name": "",
          "type": "address"
        }
      ],
      "name": "hasPurchased",
      "outputs": [
        {
          "internalType": "bool",
          "name": "",
          "type": "bool"
        }
      ],
      "stateMutability": "view",
      "type": "function"
    },
    {
      "inputs": [
        {
          "internalType": "uint256",
          "name": "_courseId",
          "type": "uint256"
        },
        {
          "internalType": "address",
          "name": "_user",
          "type": "address"
        }
      ],
      "name": "hasUserPurchased",
      "outputs": [
        {
          "internalType": "bool",
          "name": "",
          "type": "bool"
        }
      ],
      "stateMutability": "view",
      "type": "function"
    },
    {
      "inputs": [
        {
          "internalType": "address",
          "name": "",
          "type": "address"
        },
        {
          "internalType": "uint256",
          "name": "",
          "type": "uint256"
        }
      ],
      "name": "instructorCourses",
      "outputs": [
        {
          "internalType": "uint256",
          "name": "",
          "type": "uint256"
        }
      ],
      "stateMutability": "view",
      "type": "function"
    },
    {
      "inputs": [],
      "name": "owner",
      "outputs": [
        {
          "internalType": "address",
          "name": "",
          "type": "address"
        }
      ],
      "stateMutability": "view",
      "type": "function"
    },
    {
      "inputs": [],
      "name": "platformFeePercent",
      "outputs": [
        {
          "internalType": "uint256",
          "name": "",
          "type": "uint256"
        }
      ],
      "stateMutability": "view",
      "type": "function"
    },
    {
      "inputs": [
        {
          "internalType": "uint256",
          "name": "_courseId",
          "type": "uint256"
        }
      ],
      "name": "purchaseCourse",
      "outputs": [],
      "stateMutability": "nonpayable",
      "type": "function"
    },
    {
      "inputs": [],
      "name": "renounceOwnership",
      "outputs": [],
      "stateMutability": "nonpayable",
      "type": "function"
    },
    {
      "inputs": [
        {
          "internalType": "uint256",
          "name": "_feePercent",
          "type": "uint256"
        }
      ],
      "name": "setPlatformFee",
      "outputs": [],
      "stateMutability": "nonpayable",
      "type": "function"
    },
    {
      "inputs": [
        {
          "internalType": "address",
          "name": "",
          "type": "address"
        },
        {
          "internalType": "uint256",
          "name": "",
          "type": "uint256"
        }
      ],
      "name": "studentCourses",
      "outputs": [
        {
          "internalType": "uint256",
          "name": "",
          "type": "uint256"
        }
      ],
      "stateMutability": "view",
      "type": "function"
    },
    {
      "inputs": [
        {
          "internalType": "address",
          "name": "newOwner",
          "type": "address"
        }
      ],
      "name": "transferOwnership",
      "outputs": [],
      "stateMutability": "nonpayable",
      "type": "function"
    },
    {
      "inputs": [
        {
          "internalType": "uint256",
          "name": "_courseId",
          "type": "uint256"
        },
        {
          "internalType": "string",
          "name": "_title",
          "type": "string"
        },
        {
          "internalType": "string",
          "name": "_description",
          "type": "string"
        },
        {
          "internalType": "string",
          "name": "_coverUrl",
          "type": "string"
        },
        {
          "internalType": "uint256",
          "name": "_priceYCT",
          "type": "uint256"
        }
      ],
      "name": "updateCourse",
      "outputs": [],
      "stateMutability": "nonpayable",
      "type": "function"
    },
    {
      "inputs": [],
      "name": "ycToken",
      "outputs": [
        {
          "internalType": "contract YCToken",
          "name": "",
          "type": "address"
        }
      ],
      "stateMutability": "view",
      "type": "function"
    }
  ],
  "bytecode": "0x608060405260056008553480156200001657600080fd5b5060405162001df238038062001df28339810160408190526200003991620000e6565b33806200006057604051631e4fbdf760e01b81526000600482015260240160405180910390fd5b6200006b8162000096565b5060018055600280546001600160a01b0319166001600160a01b039290921691909117905562000118565b600080546001600160a01b038381166001600160a01b0319831681178455604051919092169283917f8be0079c531659141344cd1fd0a4f28419497f9722a3daafe3b4186f6b6457e09190a35050565b600060208284031215620000f957600080fd5b81516001600160a01b03811681146200011157600080fd5b9392505050565b611cca80620001286000396000f3fe608060405234801561001057600080fd5b506004361061012c5760003560e01c80638c639a85116100ad578063cd13193811610071578063cd131938146102a2578063d40761e4146102b5578063dc9da2f8146102c8578063f2fde38b146102f6578063fd95cc511461030957600080fd5b80638c639a85146102265780638da5cb5b1461022f57806396f979d214610254578063998d1ff11461027c578063ac85495d1461028f57600080fd5b80635942d68d116100f45780635942d68d146101cf5780636ceff219146101ef5780636d4d38e514610202578063715018a61461021557806382216fbd1461021d57600080fd5b8063028f5578146101315780630b91e28d1461015957806312e8e2c31461017957806317cb7d7c1461018e57806344674e43146101af575b600080fd5b61014461013f3660046115be565b61031c565b60405190151581526020015b60405180910390f35b61016c6101673660046115ea565b610349565b60405161015091906116f6565b61018c6101873660046115ea565b61057a565b005b6101a161019c3660046117b3565b6105d5565b604051908152602001610150565b6101c26101bd366004611843565b6107e6565b604051610150919061185e565b6101e26101dd3660046118a2565b610852565b60405161015091906118c4565b6101a16101fd366004611926565b610c22565b61018c610210366004611950565b610c53565b61018c610d87565b6101a160075481565b6101a160085481565b6000546001600160a01b03165b6040516001600160a01b039091168152602001610150565b6102676102623660046115ea565b610d9b565b604051610150999897969594939291906119ea565b60025461023c906001600160a01b031681565b61018c61029d3660046115ea565b610f8b565b61018c6102b03660046115ea565b611039565b6101c26102c3366004611843565b6113e3565b6101446102d63660046115be565b600460209081526000928352604080842090915290825290205460ff1681565b61018c610304366004611843565b61144d565b6101a1610317366004611926565b611488565b60008281526004602090815260408083206001600160a01b038516845290915290205460ff165b92915050565b61035161154b565b60036000838152602001908152602001600020604051806101200160405290816000820154815260200160018201805461038a90611a63565b80601f01602080910402602001604051908101604052809291908181526020018280546103b690611a63565b80156104035780601f106103d857610100808354040283529160200191610403565b820191906000526020600020905b8154815290600101906020018083116103e657829003601f168201915b5050505050815260200160028201805461041c90611a63565b80601f016020809104026020016040519081016040528092919081815260200182805461044890611a63565b80156104955780601f1061046a57610100808354040283529160200191610495565b820191906000526020600020905b81548152906001019060200180831161047857829003601f168201915b505050505081526020016003820180546104ae90611a63565b80601f01602080910402602001604051908101604052809291908181526020018280546104da90611a63565b80156105275780601f106104fc57610100808354040283529160200191610527565b820191906000526020600020905b81548152906001019060200180831161050a57829003601f168201915b50505091835250506004820154602082015260058201546001600160a01b0381166040830152600160a01b900460ff16151560608201526006820154608082015260079091015460a09091015292915050565b6105826114a4565b60148111156105d05760405162461bcd60e51b81526020600482015260156024820152744665652063616e6e6f74206578636565642032302560581b60448201526064015b60405180910390fd5b600855565b60008085511161061f5760405162461bcd60e51b81526020600482015260156024820152745469746c652063616e6e6f7420626520656d70747960581b60448201526064016105c7565b6000821161066f5760405162461bcd60e51b815260206004820152601c60248201527f5072696365206d7573742062652067726561746572207468616e20300000000060448201526064016105c7565b6007805490600061067f83611ab3565b90915550506007546040805161012081018252828152602080820189815282840189905260608301889052608083018790523360a0840152600160c084018190524260e08501526000610100850181905286815260039093529390912082518155905191929091908201906106f49082611b1b565b50604082015160028201906107099082611b1b565b506060820151600382019061071e9082611b1b565b506080820151600482015560a082015160058201805460c08501511515600160a01b026001600160a81b03199091166001600160a01b039093169290921791909117905560e08201516006808301919091556101009092015160079091015533600081815260209283526040808220805460018101825590835293909120909201839055905182907f48ecb80c764507d9b513e5fbdba76e8b8177d246e4314b2718204d1027f99673906107d5908a908890611bdb565b60405180910390a395945050505050565b6001600160a01b03811660009081526006602090815260409182902080548351818402810184019094528084526060939283018282801561084657602002820191906000526020600020905b815481526020019060010190808311610832575b50505050509050919050565b6060600060015b60075481116108a357600081815260036020526040902060050154600160a01b900460ff1615610891578161088d81611ab3565b9250505b8061089b81611ab3565b915050610859565b50828185106108e75760408051600080825260208201909252906108dd565b6108ca61154b565b8152602001906001900390816108c25790505b5092505050610343565b816108f28587611bfd565b1115610905576109028583611c10565b90505b60008167ffffffffffffffff81111561092057610920611710565b60405190808252806020026020018201604052801561095957816020015b61094661154b565b81526020019060019003908161093e5790505b50905060008060015b600754811115801561097357508483105b15610c1557600081815260036020526040902060050154600160a01b900460ff1615610c0357888210610bf5576003600082815260200190815260200160002060405180610120016040529081600082015481526020016001820180546109d990611a63565b80601f0160208091040260200160405190810160405280929190818152602001828054610a0590611a63565b8015610a525780601f10610a2757610100808354040283529160200191610a52565b820191906000526020600020905b815481529060010190602001808311610a3557829003601f168201915b50505050508152602001600282018054610a6b90611a63565b80601f0160208091040260200160405190810160405280929190818152602001828054610a9790611a63565b8015610ae45780601f10610ab957610100808354040283529160200191610ae4565b820191906000526020600020905b815481529060010190602001808311610ac757829003601f168201915b50505050508152602001600382018054610afd90611a63565b80601f0160208091040260200160405190810160405280929190818152602001828054610b2990611a63565b8015610b765780601f10610b4b57610100808354040283529160200191610b76565b820191906000526020600020905b815481529060010190602001808311610b5957829003601f168201915b50505091835250506004820154602082015260058201546001600160a01b0381166040830152600160a01b900460ff16151560608201526006820154608082015260079091015460a0909101528451859085908110610bd757610bd7611c23565b60200260200101819052508280610bed90611ab3565b935050610c03565b81610bff81611ab3565b9250505b80610c0d81611ab3565b915050610962565b5091979650505050505050565b60066020528160005260406000208181548110610c3e57600080fd5b90600052602060002001600091509150505481565b600085815260036020526040902060058101546001600160a01b03163314610cbd5760405162461bcd60e51b815260206004820152601a60248201527f4f6e6c7920696e7374727563746f722063616e2075706461746500000000000060448201526064016105c7565b6005810154600160a01b900460ff16610d0f5760405162461bcd60e51b8152602060048201526014602482015273436f75727365206973206e6f742061637469766560601b60448201526064016105c7565b60018101610d1d8682611b1b565b5060028101610d2c8582611b1b565b5060038101610d3b8482611b1b565b50818160040181905550857f269ca4ac76f1fe8445143e604fc48426f3643e2467e177179f519c948c9e1c9a8684604051610d77929190611bdb565b60405180910390a2505050505050565b610d8f6114a4565b610d9960006114d1565b565b60036020526000908152604090208054600182018054919291610dbd90611a63565b80601f0160208091040260200160405190810160405280929190818152602001828054610de990611a63565b8015610e365780601f10610e0b57610100808354040283529160200191610e36565b820191906000526020600020905b815481529060010190602001808311610e1957829003601f168201915b505050505090806002018054610e4b90611a63565b80601f0160208091040260200160405190810160405280929190818152602001828054610e7790611a63565b8015610ec45780601f10610e9957610100808354040283529160200191610ec4565b820191906000526020600020905b815481529060010190602001808311610ea757829003601f168201915b505050505090806003018054610ed990611a63565b80601f0160208091040260200160405190810160405280929190818152602001828054610f0590611a63565b8015610f525780601f10610f2757610100808354040283529160200191610f52565b820191906000526020600020905b815481529060010190602001808311610f3557829003601f168201915b50505050600483015460058401546006850154600790950154939491936001600160a01b0382169350600160a01b90910460ff16919089565b600081815260036020526040902060058101546001600160a01b0316331480610fbe57506000546001600160a01b031633145b610ffb5760405162461bcd60e51b815260206004820152600e60248201526d139bdd08185d5d1a1bdc9a5e995960921b60448201526064016105c7565b60058101805460ff60a01b1916905560405182907f85a406c134e004f27c0b2cd0d0d951d7235374623df2bc40752d06597463a83f90600090a25050565b611041611521565b60008181526003602052604090206005810154600160a01b900460ff166110a15760405162461bcd60e51b8152602060048201526014602482015273436f75727365206973206e6f742061637469766560601b60448201526064016105c7565b600082815260046020908152604080832033845290915290205460ff16156110ff5760405162461bcd60e51b8152602060048201526011602482015270105b1c9958591e481c1d5c98da185cd959607a1b60448201526064016105c7565b6005810154336001600160a01b039091160361115d5760405162461bcd60e51b815260206004820181905260248201527f496e7374727563746f722063616e6e6f7420627579206f776e20636f7572736560448201526064016105c7565b60048101546008546000906064906111759084611c39565b61117f9190611c50565b9050600061118d8284611c10565b60025460058601546040516323b872dd60e01b81523360048201526001600160a01b0391821660248201526044810184905292935016906323b872dd906064016020604051808303816000875af11580156111ec573d6000803e3d6000fd5b505050506040513d601f19601f820116820180604052508101906112109190611c72565b61125c5760405162461bcd60e51b815260206004820152601c60248201527f5061796d656e7420746f20696e7374727563746f72206661696c65640000000060448201526064016105c7565b6002546001600160a01b03166323b872dd336112806000546001600160a01b031690565b6040516001600160e01b031960e085901b1681526001600160a01b03928316600482015291166024820152604481018590526064016020604051808303816000875af11580156112d4573d6000803e3d6000fd5b505050506040513d601f19601f820116820180604052508101906112f89190611c72565b6113445760405162461bcd60e51b815260206004820152601c60248201527f506c6174666f726d20666565207472616e73666572206661696c65640000000060448201526064016105c7565b60008581526004602090815260408083203384528252808320805460ff1916600190811790915560058352908320805491820181558352908220018690556007850180549161139283611ab3565b909155505060408051848152426020820152339187917ff60c4bc755920ce357f8797c815c26aa589a56bea35c8fe0be2bf8ad413606da910160405180910390a3505050506113e060018055565b50565b6001600160a01b03811660009081526005602090815260409182902080548351818402810184019094528084526060939283018282801561084657602002820191906000526020600020908154815260200190600101908083116108325750505050509050919050565b6114556114a4565b6001600160a01b03811661147f57604051631e4fbdf760e01b8152600060048201526024016105c7565b6113e0816114d1565b60056020528160005260406000208181548110610c3e57600080fd5b6000546001600160a01b03163314610d995760405163118cdaa760e01b81523360048201526024016105c7565b600080546001600160a01b038381166001600160a01b0319831681178455604051919092169283917f8be0079c531659141344cd1fd0a4f28419497f9722a3daafe3b4186f6b6457e09190a35050565b60026001540361154457604051633ee5aeb560e01b815260040160405180910390fd5b6002600155565b604051806101200160405280600081526020016060815260200160608152602001606081526020016000815260200160006001600160a01b0316815260200160001515815260200160008152602001600081525090565b80356001600160a01b03811681146115b957600080fd5b919050565b600080604083850312156115d157600080fd5b823591506115e1602084016115a2565b90509250929050565b6000602082840312156115fc57600080fd5b5035919050565b6000815180845260005b818110156116295760208185018101518683018201520161160d565b506000602082860101526020601f19601f83011685010191505092915050565b600061012082518452602083015181602086015261166982860182611603565b915050604083015184820360408601526116838282611603565b9150506060830151848203606086015261169d8282611603565b9150506080830151608085015260a08301516116c460a08601826001600160a01b03169052565b5060c08301516116d860c086018215159052565b5060e083810151908501526101009283015192909301919091525090565b6020815260006117096020830184611649565b9392505050565b634e487b7160e01b600052604160045260246000fd5b600082601f83011261173757600080fd5b813567ffffffffffffffff8082111561175257611752611710565b604051601f8301601f19908116603f0116810190828211818310171561177a5761177a611710565b8160405283815286602085880101111561179357600080fd5b836020870160208301376000602085830101528094505050505092915050565b600080600080608085870312156117c957600080fd5b843567ffffffffffffffff808211156117e157600080fd5b6117ed88838901611726565b9550602087013591508082111561180357600080fd5b61180f88838901611726565b9450604087013591508082111561182557600080fd5b5061183287828801611726565b949793965093946060013593505050565b60006020828403121561185557600080fd5b611709826115a2565b6020808252825182820181905260009190848201906040850190845b818110156118965783518352928401929184019160010161187a565b50909695505050505050565b600080604083850312156118b557600080fd5b50508035926020909101359150565b6000602080830181845280855180835260408601915060408160051b870101925083870160005b8281101561191957603f19888603018452611907858351611649565b945092850192908501906001016118eb565b5092979650505050505050565b6000806040838503121561193957600080fd5b611942836115a2565b946020939093013593505050565b600080600080600060a0868803121561196857600080fd5b85359450602086013567ffffffffffffffff8082111561198757600080fd5b61199389838a01611726565b955060408801359150808211156119a957600080fd5b6119b589838a01611726565b945060608801359150808211156119cb57600080fd5b506119d888828901611726565b95989497509295608001359392505050565b60006101208b8352806020840152611a048184018c611603565b90508281036040840152611a18818b611603565b90508281036060840152611a2c818a611603565b608084019890985250506001600160a01b039490941660a085015291151560c084015260e083015261010090910152949350505050565b600181811c90821680611a7757607f821691505b602082108103611a9757634e487b7160e01b600052602260045260246000fd5b50919050565b634e487b7160e01b600052601160045260246000fd5b600060018201611ac557611ac5611a9d565b5060010190565b601f821115611b1657600081815260208120601f850160051c81016020861015611af35750805b601f850160051c820191505b81811015611b1257828155600101611aff565b5050505b505050565b815167ffffffffffffffff811115611b3557611b35611710565b611b4981611b438454611a63565b84611acc565b602080601f831160018114611b7e5760008415611b665750858301515b600019600386901b1c1916600185901b178555611b12565b600085815260208120601f198616915b82811015611bad57888601518255948401946001909101908401611b8e565b5085821015611bcb5787850151600019600388901b60f8161c191681555b5050505050600190811b01905550565b604081526000611bee6040830185611603565b90508260208301529392505050565b8082018082111561034357610343611a9d565b8181038181111561034357610343611a9d565b634e487b7160e01b600052603260045260246000fd5b808202811582820484141761034357610343611a9d565b600082611c6d57634e487b7160e01b600052601260045260246000fd5b500490565b600060208284031215611c8457600080fd5b8151801515811461170957600080fdfea2646970667358221220104afbdf7b4a1b5afef8767989585de785d40b04c6e4b10746ecfa8513f21f7164736f6c63430008140033",
  "linkReferences": {},
  "deployedLinkReferences": {}
}